:020000041000EA
:1000000000B5324B212058609868022188439860DF
:10001000D860186158612E4B002199600221596106
:100020000121F02299502B49196001219960352056
:1000300000F044F80222904214D00621196600F024
:1000400034F8196E01211966002018661A6600F04E
:100050002CF8196E196E196E052000F02FF8012189
:100060000842F9D1002199601B49196000215960AB
:100070001A491B48016001219960EB211966A021F2
:10008000196600F012F800219960164914480160C1
:100090000121996001BC002800D000471248134993
:1000A000086003C880F30888084703B5996A0420EC
:1000B0000142FBD001200142F8D103BD02B5186610
:1000C0001866FFF7F2FF186E186E02BD00000240BE
:1000D000000000180000070000035F00212200005C
:1000E000F4000018222000A00001001008ED00E03C
:1000F00000000000000000000000000074B24E7A12
:1001000000200420F7010010C3010010C5010010F9
:10011000C1010010C1010010C1010010C101001097
:10012000C1010010C1010010C1010010C701001081
:10013000C1010010C1010010C9010010CB01001065
:10014000CD010010CD010010CD010010CD01001037
:10015000CD010010CD010010CD010010CD01001027
:10016000CD010010CD010010CD010010CD01001017
:10017000CD010010CD010010CD010010CD01001007
:10018000CD010010CD010010CD010010CD010010F7
:10019000CD010010CD010010CD010010CD010010E7
:1001A000CD010010CD010010CD010010CD010010D7
:1001B000CD010010CD010010CD010010CD010010C7
:1001C00000BE00BE00BE00BE00BE00BE00F04BF888
:1001D000103800BEF2EB8871407400106874001093
:1001E0003402001090A31AE700202149086006C8D5
:1001F00081F3088810471F48006800282FD10DA4FC
:100200000ECC002902D000F012F8F9E71A491B4A77
:10021000002000E001C19142FCD1194988471949E9
:1002200088471949884700BEFDE701C901C29A42C3
:10023000FBD3704768740010C0000020240C00201D
:10024000CC7F00100000042000000420CC7F0010B0
:1002500000100420001004200000000070470B482C
:1002600003F0C4FC0047EFF30580C0B27047000004
:1002700008ED00E0000000D0280C00205410002001
:10028000712100103D0E00102D2100105756000066
:1002900006005250ABB360535C720010060052501F
:1002A000861C03026C720010060052505422A29D5C
:1002B0007872001005005250DE65F468CC7F0010A3
:1002C000F8B5C04610B5064C2378002B07D1054B76
:1002D000002B02D0044800E000BF0123237010BDB2
:1002E000280D002000000000905C0010044B10B5A9
:1002F000002B03D00349044800E000BF10BDC046F6
:10030000000000002C0D0020905C001010B504F0DF
:1003100050FE040004F04DFEA04704F040FEF6E756
:1003200010B500F057FF10BD01238340002903D012
:10033000D022120653627047D02212069362FAE767
:1003400010B501220C2100F035FF10BD70B506007C
:100350000D00880004F0F0FB002206E0012393402A
:1003600033401341940003510132AA42F6DB70BDC1
:1003700010B5002403E00A2004F0F6FC0134312C0F
:10038000F9DD10BD034B01221A60034B00221A60F5
:100390007047C046940D0020180E002070B5040070
:1003A000154B1968072901DD002070BD134B186833
:1003B000FFF7CCFF0022104B1B68934210DD9B1A05
:1003C0000F498C4663449B001D580132E100091B14
:1003D0000C4B5B189B5C2D3B9D42ECD00020E4E76E
:1003E0000133E000001B074C2418E35C002B01D113
:1003F0000120DAE70020D8E7180E0020940D002035
:10040000FFFFFF3FB001002010B50024232C0BDCC0
:100410002000FFF7C3FF012801D00134F6E7E30015
:100420001C1B024BE05C10BD3F20FCE7B00100202C
:10043000034B1B68002BFBD0014B00221A60704756
:10044000100E002010B52A4B5B68DB03FBD4284B51
:10045000FE22D2011A61FFF78BFF264C200004F028
:10046000BDFC254804F0BAFC244804F0B7FC24483D
:1004700004F0B4FC200004F0B1FC224804F0AEFC0F
:10048000214804F0ABFC214804F0A8FC204804F00B
:10049000A5FC204804F0A2FC1F4804F09FFC1F4864
:1004A00004F09CFC1E4804F099FC1E4804F096FCE5
:1004B0001D4804F093FC1D4804F090FC200004F05B
:1004C0008DFC1B4804F08AFC200004F087FC1948CE
:1004D00004F084FC184804F081FC184804F07EFC09
:1004E000174804F07BFC200004F078FC10BDC046E7
:1004F00000002050905C0010CC5C0010F05C0010FC
:10050000145D0010385D0010745D0010B05D0010C7
:10051000EC5D0010285E0010645E0010785E001034
:10052000B45E0010F05E00102C5F0010685F0010D9
:10053000A45F0010D45F0010006000102C60001059
:1005400058600010F8B504000D0017001E000328C5
:1005500038D012DC01281BD002286ED1FFF708FF2B
:10056000EB005D1B3D4BEB5C3A0031003C4804F076
:1005700067FC0A2004F0F8FB5FE004285DD1FFF778
:10058000F7FE3A003100374804F05AFC002458E0E6
:10059000FFF7EEFEEB005B1B304A9B5C3A0031003C
:1005A000314804F04DFC02E004F0DEFB0134EA00C7
:1005B000521B2A4B9B18185D0028F5D10A3004F015
:1005C000D3FB3AE0FFF7D4FE3A003100274804F0AD
:1005D00037FC002402E004F0C7FB0134AA00244BDE
:1005E0009B18185D0028F6D10A3004F0BDFB0026E8
:1005F0001CE004F0B9FB0137E200121B174B9B18FB
:10060000D85D0028F5D10134232C0EDCAA00184B4C
:100610009B189A5DE3001B1B10495B5C9A42F2D168
:10062000144804F00DFC0127E6E70136022E01DC38
:100630000024E9E70A2004F097FBF8BD04F094FBDE
:100640000134AA000A4B9B18185D0028F6D10A3025
:1006500004F08AFB0A2004F087FBEEE7B0010020DB
:10066000B46000100461001084600010DC600010B1
:10067000AC02002000610010F0B5C64600B50500D0
:100680000E00170098461F4C6468E303FBD41D4B13
:10069000FE22D2051A61FFF7CBFE02F099F943461C
:1006A0003A0031002800FFF74DFF174804F0C8FB5F
:1006B000FFF7BEFE02F08CF943463A0031002800F5
:1006C000FFF740FF114804F0BBFBFFF7B1FE02F05B
:1006D0007FF943463A0031002800FFF733FF0C480A
:1006E00004F0AEFBFFF7A4FE02F072F943463A00B5
:1006F00031002800FFF726FF064804F06FFB80BC9E
:10070000B846F0BD00002050286100102C61001098
:10071000346100104061001070B516E0A300585914
:100720002D3004F021FB013C002CF7DA0A2004F004
:100730001BFB134B1A68134B1A60134B1B681F2BC0
:1007400014DC124B1B68012B13D00D4B18680D4B9A
:100750001B689842F5D00C4B19680029F1DDFFF7B2
:10076000F5FD0500084B1C68013CDDE7FFF70AFEBC
:10077000E7E7064B00221A60FFF746FE70BDC04651
:10078000940D00202C0E0020180E0020100E0020CA
:10079000F0B5CE4600B582B0FFF7EAFDFFF7F2FDF7
:1007A0003A4B5B68DB03FBD4384BFE22D2051A615F
:1007B000374804F013FB032399460025032700263E
:1007C0001FE0324B5B68DB03FBD4304BFE22D203CD
:1007D0001A61304804F002FB380002B080BCB94610
:1007E000F0BDFFF7C5FD2C4804F0F8FA0127F3E748
:1007F000FFF71EFE02F0ECF832000199274804F0E2
:100800001FFBFFF7BFFD02F0E3F805F089F8242194
:1008100003F018FA0C003B0032000120FFF72CFF18
:10082000FFF77AFF0190002FCBD0052DD9D0E10042
:100830000C1B1B4AA25C824211D1013601354B468A
:10084000002BD5DD013701235B429C46E1440F4B71
:100850005B68DB03FBD40D4B124A1A61C8E7002E1C
:1008600001DD013E0025013F084B5B68DB03FBD443
:10087000064B0D4A1A61FFF7DBFD02F0A9F83200C2
:1008800001990A4804F0DCFABBE7C046000020509A
:10089000446100105C6100107C610010B0610010C8
:1008A000B0010020008080000000FF8CE06100109B
:1008B000F0B5CE4600B582B0FFF75AFDFFF762FDF6
:1008C0003B4B5B68DB03FBD4394BFE22D2051A613C
:1008D000384804F083FA03239946002503260027AD
:1008E00022E0FFF745FD344804F078FA304B5B68AE
:1008F000DB03FBD42E4BFE22D2031A61300002B080
:1009000080BCB946F0BDFFF733FD2C4804F066FA11
:100910000126F3E7FFF78CFD02F05AF83300019A45
:100920003900274804F08CFAFFF72CFD02F050F84C
:1009300004F0F6FF242103F085F90C0033003A009F
:100940000220FFF799FEFFF7E7FE0190002EC8D0C6
:10095000052DD8D0E1000C1B1A4AA25C824211D1AD
:10096000013701354B46002BD4DD013601235B42B4
:100970009C46E1440E4B5B68DB03FBD40C4B124AF4
:100980001A61C7E7002F01DD013F0025013E084B3A
:100990005B68DB03FBD4064B0C4A1A61FFF748FD8A
:1009A00002F016F832000199094804F049FABBE751
:1009B00000002050106200105C61001028620010DE
:1009C0005C620010B0010020008080000000FF8CFD
:1009D00094620010F0B5DE4657464E46C0B584B06E
:1009E000FFF7C6FCFFF7CEFC614B5B68DB03FBD473
:1009F0005F4BFE22D2051A615E4804F0EFF901F068
:100A0000E7FF03239B4600239946032600278AE03D
:100A1000FFF7AEFC584804F0E1F9554B5B68DB0387
:100A2000FBD4534BFE22D2031A61300004B0E0BC69
:100A3000BB46B246A946F0BD01F0CAFF4F4804F0DC
:100A4000CDF9FFF79FFC01F0C3FFFFF765FE0290B1
:100A500082464B4804F0C2F9FFF794FC01F0B8FF5E
:100A6000FFF75AFE0390A100464B5B185B78534595
:100A700031D1444B5C18A37883422CD10137012338
:100A80009C46E1445B46002B18DCFFF7D1FC01F0EB
:100A90009FFF0196039B0093029B2A0039003A486E
:100AA00004F0CEF94B46052B3DD1FFF761FC3748EA
:100AB00004F094F901F08CFF0126B6E7013601231A
:100AC0005B429C46E3442A4B5B68DB03FBD4284B28
:100AD0002F4A1A61D9E7002F02DD013F0023994612
:100AE000013E234B5B68DB03FBD4214B294A1A618F
:100AF000FFF79EFC01F06CFF32002900264804F04D
:100B00009FF910E0013E1A4B5B68DB03FBD4184BE6
:100B1000204A1A61FFF78CFC01F05AFF32002900CD
:100B20001E4804F08DF9FFF72DFC01F051FF04F091
:100B3000F7FEC3171B0FC0180F240440E41A33003C
:100B40003A0021000320FFF797FDFFF7E5FD0500C0
:100B5000002E00D15CE7A3000A495B5C834200D110
:100B60006AE7002FCEDD013F00239946CAE7C04661
:100B700000002050C46200105C610010DC620010B4
:100B8000F4620010AC0200200C6300102C63001013
:100B9000008080000000FF8C60630010786300100C
:100BA000F0B5DE4657464E46C0B584B0FFF7E0FBD1
:100BB000FFF7E8FB5F4B5B68DB03FBD45D4BFE227A
:100BC000D2051A615C4804F009F901F001FF032322
:100BD0009B46002399460326002786E0FFF7C8FBC3
:100BE000564804F0FBF8534B5B68DB03FBD4514BD6
:100BF000FE22D2031A61300004B0E0BCBB46B2460C
:100C0000A946F0BD4E4804F0E9F8FFF7BBFB01F040
:100C1000DFFEFFF781FD029082464A4804F0DEF8CD
:100C2000FFF7B0FB01F0D4FEFFF776FD0390A100C3
:100C3000454B5B185B7853452FD1434B5C18A37829
:100C400083422AD1013701239C46E1445B46002BB5
:100C500016DCFFF7EDFB01F0BBFE0196039B009352
:100C6000029B2A003900394804F0EAF84B46052B6C
:100C70003BD1FFF77DFB364804F0B0F80126BAE718
:100C8000013601235B429C46E3442A4B5B68DB034D
:100C9000FBD4284B2F4A1A61DBE7002F02DD013F0E
:100CA00000239946013E234B5B68DB03FBD4214BB9
:100CB000294A1A61FFF7BCFB01F08AFE32002900C5
:100CC000264804F0BDF810E0013E1A4B5B68DB03D8
:100CD000FBD4184B204A1A61FFF7AAFB01F078FEFB
:100CE000320029001D4804F0ABF8FFF74BFB01F080
:100CF0006FFE04F015FEC3171B0FC0180F2404402D
:100D0000E41A33003A0021000420FFF7B5FCFFF796
:100D100003FD0500002E00D160E7A3000A495B5CDB
:100D2000834200D16EE7002FCEDD013F00239946BC
:100D3000CAE7C04600002050906300105C610010BC
:100D4000DC620010F4620010AC020020A863001006
:100D5000C8630010008080000000FF8C78630010E2
:100D600070B5FFF70FFB002500240EE0332857D1A4
:100D7000022D47DDFFF714FF012841D0013C04E0BC
:100D8000FFF706FD012811D0013CFFF7C5FC322812
:100D90001ED0EBD83028F3D0312841D1002D09DD09
:100DA000FFF786FD012803D0013CEEE70135EBE7B4
:100DB0000135F9E7FFF7E6FAFFF7DAFA1C4804F025
:100DC0000DF8FFF735FB01F003FEFFF73BFBDCE717
:100DD000012D07DDFFF7FEFD012801D0013CD4E71E
:100DE0000135FBE7FFF7CEFAFFF7C2FA114803F02F
:100DF000F5FFFFF71DFB01F0EBFDFFF723FBC4E759
:100E00000135BBE7FFF7BEFAFFF7B2FA0A4803F075
:100E1000E5FFFFF70DFB01F0DBFDFFF713FBB4E788
:100E2000FFF7B0FA002CB0D1FFF70CFB0134ACE7B0
:100E3000FC6300102C6400105C64001070B58CB072
:100E40000126534B1E600023524A1360524A13601E
:100E500004F002F8514D5249280004F0BFF9040093
:100E600006211C2000F068F9009601231C220021B5
:100E7000280004F0CFF91022002108A803F082FE18
:100E800080235B020893F8235B0209938023DB0233
:100E90000A93C0231B030A93102208A904A803F095
:100EA00077FEE21C059B03933E4B03990B40E10147
:100EB0000B43120313430593079A0392D200D208FF
:100EC000802189050A430792374A1340059310226F
:100ED00004A908A803F05CFE0B9B0393334A1A4055
:100EE000E023DB0113430B930A9B0393304A1A4020
:100EF00080239B0213430A939B009B088022D20508
:100F000013430A93052001F0C9FA03F04DFD294966
:100F100003F02BFD061C03F06FFD85B2002D35D0CC
:100F2000280003F041FD011C301C03F014FD872153
:100F3000C90503F030FD03F05FFDC0B200022D04CF
:100F400005430895154D08AB22000021280004F048
:100F500099F92B680122934313432B600121164812
:100F600001F07CFD154804F08FF8154804F017F8DF
:100F70000A2004F014F8064B191C124B1A1C064BDD
:100F80001B1C00F025F800200CB070BD0020D5E738
:100F9000940D00202C0E0020100E00200000205088
:100FA0008C6400107F00FEFFFFFFFF9FFF83FFFFA9
:100FB000FFFFF5C10024F44AFFFF7F000D0300107E
:100FC000610D0010180E002000000000000000005D
:100FD00047480160474802604748036000F00AF84C
:100FE00000F014F800F029F800F01DF800F000F807
:100FF00030BFFDE700B51520FFF792F9152000215D
:10100000FFF792F91520FFF79BF900BD3B4A1168E5
:1010100074220A443A48106001214903394A116098
:10102000394A1160704700B50121384A9163D1688F
:10103000374800680144116100BD04B52F4A1168AA
:1010400040220A4433481060012109002D4A1160F2
:101050002D4A116004BD00B501212C4A516300F0F6
:1010600040F8FFF7E0FF00BD00B52B4C23681900E6
:101070002A4D2B4202D02A4D2B4207D0FFB4FFF756
:10108000D2FF284828490968016026E0FFB4FFF72D
:10109000CAFF26482449096801600068214A12688D
:1010A000801A23490968884200D807D91048026885
:1010B0001168490000231944116007E00C480268D8
:1010C00011684900012319441160FFE709480268CB
:1010D0001168012001441160FFE7FFBC154A11604F
:1010E00000BD00B5044800680121016000BD00009A
:1010F000F0020020F4020020F802002008ED00E0D9
:101100006910001080E200E000E100E000400540CE
:101110000803002057100010284101400000800003
:1011200000004000000300200C400540FC020020AD
:1011300004030020F840014010B58300084A94469B
:1011400063441C6840226240C02414408022520143
:1011500013431C60C000034B9C466044416010BDBB
:1011600004C0014000400140072303409B00C00829
:1011700099403C308000014BC15070470040014015
:10118000F8B507000C0016001D00FFF7EDFFFB0887
:101190009B00ED180720384080008440002E04D0CA
:1011A00080239B011D432C60F8BDC0239B011D4380
:1011B0002C60F9E710B5D0231B061B68002B03D069
:1011C000024BFFF7DDFF10BD014BFAE73041014054
:1011D0000041014010B501238340D02212069362E2
:1011E00093610521FFF7A8FF10BD0000EFF3108009
:1011F00072B6034B1B68002BFBD0BFF35F8F7047A9
:101200002C0100D0BFF35F8F024B00221A6080F3E5
:10121000108870472C0100D0F8B506000C001500AE
:10122000FFF7E4FFE308F718F15C072222400123EF
:1012300093400B4205D1DBB20B433B70FFF7E2FF5B
:10124000F8BD2100280001F00FF80000034B1B68D7
:1012500002201840431E9841C0B2704700C00640AB
:10126000002307E0054A9A189200BFF35F8F002120
:10127000116001331F2BF5D97047C0464000003480
:10128000054A1078431CDBB21370172B02D91300E8
:1012900010221A707047C0461003002070B5040079
:1012A0000D00062001F0FAF8C000290002F0F2FC5F
:1012B000C60908D00E4B9E4217D87F231840013034
:1012C0003500460800E001256562A6622C348020C6
:1012D0008001044300232360062001F0DFF8800032
:1012E000A901891902F0D6FC70BD0026014DEBE77B
:1012F000FEFF0000FFFF0000002909D00A22064B74
:101300009C466044434258414000044BC2527047DF
:1013100080225200F3E7C0460080FCBF4810002046
:1013200070B505000C00062001F0B8F8002829D09F
:10133000164B9D4227D08022D203154B1A60154BC5
:101340001A60154B9B6811009943FAD100212800BF
:10135000FFF7D2FF21002800FFF7A0FF2C002C345C
:10136000E96A60224A406E211140802252012243E4
:1013700011600A4B2B6380239B01234310221A60C8
:101380000323AB6470BD80221204D6E700800340C3
:1013900000E0004000F0004000C0004001030000F9
:1013A00070B505000C00080000F07AFB200000F08A
:1013B0004BFC0849200000F08BFBFFF761FF064B58
:1013C0009C466044800068602C75A400034BE55087
:1013D00070BDC046B5160010400000341C0E002041
:1013E00010B5002922D003681B7B99421ED8174BE9
:1013F0009C466144090183689C4661440C684968C5
:10140000002A19D003681B7B9A4215D883680F48BD
:101410008446624412019A18106853680200012041
:101420008B4201D80ED00020C0B210BD084B094A33
:101430003B21094800F07EFE054B064A3B21064849
:1014400000F078FEA242EFD8EDE7C046FFFFFF0FA5
:10145000F06400100C670010B064001010B5002993
:101460001ED0037B99421BD84B005B18033B0468DA
:10147000A4466344002919D0002A1DD0914221D0EE
:10148000002A25D0047BA24222D80468500080188C
:10149000033820188170197800291FD11A7010BDE7
:1014A000104B114A6921114800F044FE104B114ABB
:1014B00070310E4800F03EFE0F4B0E4A71210B4872
:1014C00000F038FE0D4B0B4A7221084800F032FE46
:1014D000044B054A6921054800F02CFE41701A7042
:1014E000DDE7C0462465001060670010406500100D
:1014F000946500103C670010A0650010AC650010FA
:1015000070B506000D001400002914D0002A14D074
:10151000806873689847002806D0220029003000B0
:10152000FFF79CFF280007E02A0021003000FFF7AA
:1015300095FF200000E0100070BD0800FCE70000EF
:10154000F0B583B00500009201930AAB1C780BAB99
:101550001F78002C26D003685A7B944207D10123C0
:10156000002B19D1002C3BD1200003B0F0BD002C82
:101570000CD01A7B944209D81A6863001B19033BEC
:10158000D3189B78002BEBD00123E9E73E4B3F4A71
:1015900069213F4800F0CEFD3E4B3F4A65213F4860
:1015A00000F0C8FD03689C7B002CDBD012D01A7BB6
:1015B00094420FD862001219033A19688C466244AB
:1015C00051789973002900D1D97300239370537017
:1015D0001370C7E72C4B2D4A69212D4800F0AAFD56
:1015E000002C3AD02B681B7B9C4236D82C4BE3183E
:1015F0001B01AA6894466344009A1A60019A5A60D3
:10160000089A9A60099ADA602E68002C2BD030D0A4
:10161000337B9C422DD863001B19033B32689446F0
:10162000634400229A705A701A70717B2200300055
:10163000FFF766FF7073844200D095E7287D009A1B
:10164000019B00F08DFA061E01D0002F17D00C9BD5
:10165000002B00D188E71E7086E7124B124A3B210F
:101660000E4800F067FD114B114AA621084800F012
:1016700061FD054B054A6921054800F05BFD2868BE
:10168000210000F0B9FCE2E724650010606700105B
:1016900040650010C46500106C670010B064001055
:1016A000FFFFFF0FF06400100C670010AC64001027
:1016B00050670010F0B5DE4657464E464546E0B549
:1016C0008BB00990002308938200B24BD6583700A4
:1016D00032E0B14BB14A3F21B14800F02BFDB14B94
:1016E000B14A3B21B14800F025FDB14BB14A8C21F4
:1016F000AE4800F01FFDB04BAE4A9021AB4800F061
:1017000019FDA84BAD4A4021A84800F013FD2A68F6
:101710006B68099800F024FA00239A4698467B6883
:10172000BFF35F8F00221A6086F310884346002BB8
:1017300051D1002800D126E100F0BEF902000B1EB5
:10174000C7DB00200021069007917868EFF3108630
:1017500072B601680029FCD0BFF35F8F39688846F4
:101760004C7B002C32D0BAD0097B8C42B7D894493C
:1017700065182D01B9688C46654428686968801A27
:1017800099410029C3DC01D10028C0D10021404685
:1017900000F028FCA042A8D12A686B680692079343
:1017A000AB689846EB689A464346002BA3D0002CC2
:1017B000A7D03B681B7B9C42A3D8631EFA68D35C0E
:1017C00008931B02184338610020A8E700239A46BB
:1017D00098460020A3E7089B1B02234399465146E5
:1017E0001800C04705000E007A68EFF3108B72B640
:1017F000136859424B41D9B2002BF9D1BFF35F8F27
:10180000002E26DB002E52DD3B69002B53D04B45CA
:1018100072D100F051F902000B1E73DB01001800B9
:1018200052197341984202D804D1914202D901223F
:101830005242D317002B6BDB00210491013103913D
:10184000029451460191414600913800FFF778FE1D
:1018500049E03B69002BD5D04B451CD1069A079B2C
:1018600010001900521BB341994202D804D1904292
:1018700002D901225242D317002B12DB002104911E
:101880000131039102945146019141460091380083
:10189000FFF756FE27E04B4B464A9F21434800F096
:1018A00049FC3D4B3D4A3F213D4800F043FC002EA2
:1018B00001D1002DA8D13A68002C45D0537B9C4221
:1018C0002CD1012100293FD1D37B002B42D1D473ED
:1018D000002C52D03B681B7B9C424ED8FA68013CDE
:1018E000135D0133135500233B617A68BFF35F8FAB
:1018F00013608BF310881FE7324B2E4AA2212B482E
:1019000000F018FC244B254A3F21254800F012FC2A
:10191000214B224A3F21224800F00CFC002C0DD024
:10192000137B9C420AD863001B19033B1068844652
:1019300063449B78002BC5D00121C3E7224B234A87
:101940006921234800F0F6FB224B234AF721204867
:1019500000F0F0FB002B0AD0117B8B4207D8590016
:10196000CB18033B11688C4663445C70AFE7164BA1
:10197000164A6921164800F0DDFB0A4B0F4A402148
:101980000A4800F0D7FB0BB0F0BCBB46B246A946F4
:10199000A046F0BD1C0E0020EC650010D8660010BB
:1019A00008660010F06400100C670010B0640010AE
:1019B00054660010F06600106C6600101867001086
:1019C000FFFFFF0F786600102465001060670010AD
:1019D00040650010B46600102C67001010B50A4B6B
:1019E0005B68002B04D00A21084800F04DF910BDB7
:1019F000054C2300064A1021206800F013FA032149
:101A00002000FFF7CDFCEEE7140300203410002087
:101A1000E113001070B5EFF305833F201840103834
:101A2000EFF3108C72B6194B1B68002BFBD0BFF381
:101A30005F8F012319008140154A5163154A1278BE
:101A40001400C440234214D0114B5C6A8300124D31
:101A50005B599C4206D38300104C1B598A430D49A5
:101A60000A7007E00A4A031D9B0099589950002309
:101A700000E00023BFF35F8F044A002111608CF364
:101A80001088002B00D0984770BDC046280100D0B8
:101A9000004005405210002038100020840D002026
:101AA00010B50100024A0348FFF7B6FB10BDC0465F
:101AB0008467001050100020044B5B6A034A906A50
:101AC0001900536A9942F9D17047C0460040054059
:101AD00070B504000D00EFF3108672B61B4B1B6847
:101AE000002BFBD0BFF35F8F002D1CD0200000F037
:101AF0004DFD174B83420BD01900200000F04EFD26
:101B00000121200000F03AFD0123A340114A136097
:101B1000A400114BE550BFF35F8F0C4B00221A60FD
:101B200086F3108870BDA2000B4B0021D15001221A
:101B3000A2400A490B7893430B700549200000F03E
:101B400057FD0021200000F019FDE4E7280100D036
:101B5000151A001038600540840D00205210002036
:101B6000F0B5DE4600B584B00400150001921E00F9
:101B70000293FFF7A1FF03958E4202D84ED1854212
:101B80004CD9EFF3108B72B6274B1B68002BFBD0A0
:101B9000BFF35F8F254A17780125A540EBB23B4381
:101BA0001370234B5D63221D92000199D150A20056
:101BB0002049029850501B6A2B4212D11C4B1B6CBF
:101BC0002B4208D00020BFF35F8F174B00221A6012
:101BD0008BF3108823E0184B184AC121184800F0F5
:101BE000A9FAFFF769FF8E4214D802D1039B834202
:101BF00010D80E4B1B78BB420ED00D4B1D625D639F
:101C00001F2004400123A3400E4A1360074B1F709E
:101C10001E38D8E70020D6E70120D4E7012004B021
:101C200080BCBB46F0BDC046280100D05210002049
:101C30000040054038100020A8670010146800100C
:101C4000CC67001080E200E0EFF3108C72B60B4B13
:101C50001B68002BFBD0BFF35F8F01238340084A32
:101C6000136208490A789A430A70BFF35F8F034BE7
:101C700000221A608CF310887047C046280100D0FB
:101C80000040054052100020024B9C4661448900F0
:101C9000016070474000003410B50400FFF7F0FA0F
:101CA00001002000FFF7F0FFFF232371BFF35F8FD8
:101CB00010BD10B50400FFF7E3FA01002000FFF7A4
:101CC000E3FFFF23237100236371BFF35F8F10BD18
:101CD00010B500291ED0037B99421BD84B005B181E
:101CE000033B0468A4466344002919D0002A1DD090
:101CF000914221D0002A25D0047BA24222D8046838
:101D000050008018033820188170197800291FD1DD
:101D10001A7010BD104B114A6921114800F00AFADF
:101D2000104B114A70310E4800F004FA0F4B0E4A66
:101D300071210B4800F0FEF90D4B0B4A7221084847
:101D400000F0F8F9044B054A6921054800F0F2F962
:101D500041701A70DDE7C04624650010CC690010A0
:101D60004065001094650010B8690010A06500106F
:101D7000AC65001070B506000D001400002914D0E9
:101D8000002A14D0806873689847002806D0220083
:101D900029003000FFF79CFF280007E02A002100FF
:101DA0003000FFF795FF200000E0100070BD080034
:101DB000FCE7000010B50023437301338373037BFA
:101DC000C3730123027B9A4214D9002B0CD0027BEF
:101DD000934209D85A00D218033A01688C466244EB
:101DE0000133DBB25370EDE70B4B0C4A69210C4811
:101DF00000F0A0F9002A09D0924207D801685300E8
:101E00009A18033A8A180023537010BD024B034AF4
:101E10006921034800F08EF924650010CC69001098
:101E20004065001010B5017342608360FFF7C2FF88
:101E300010BD000070B50400081E00D170BD00295F
:101E400034D0237B994231D84B005B18033B226886
:101E5000944663445A78002AF0D02DD0237B9A42CE
:101E60002AD853009B18033B21688C4663445D7855
:101E700000215970002825D0237B984222D84300A6
:101E80001B18033B21688C466344002159700100F4
:101E90002000FFF76FFF060029002000FFF7CAFFB0
:101EA000020031002000FFF765FFC7E7084B094A31
:101EB0006921094800F03EF9054B064A69210648A8
:101EC00000F038F9024B034A6921034800F032F967
:101ED00024650010CC6900104065001070B5050045
:101EE0000C001600002928D02DD0037B99422AD857
:101EF0004B005B18033B0268944663445A78002AFF
:101F000027D19A78002A2AD11978FFF793FF030086
:101F1000002E03D0EA7B002A27D1EC73002B37D1A7
:101F2000002C49D02B7B9C4246D82B6861000C19B1
:101F3000033C1C190023637070BD224B224A3821D8
:101F4000224800F0F7F8224B224A6921224800F08B
:101F5000F1F8224B1C4A3A211C4800F0EBF8204BC8
:101F6000194A3B21194800F0E5F8002A0AD0297BDC
:101F70008A4207D851008A18033A29688C4662447D
:101F80005470CAE7124B134A6921134800F0D2F883
:101F9000002B0BD02A7B934208D843001B18033B2D
:101FA0002A689446634400229A70B9E7084B094AAC
:101FB0006921094800F0BEF8054B064A6921064828
:101FC00000F0B8F8D0680010A4690010D8680010BC
:101FD00024650010CC6900104065001018690010DD
:101FE0004069001070B504000A00457B2900FFF726
:101FF00075FF6073280070BD70B50400002967D0BC
:10200000437B8B420ED0002911D0037B99420ED81E
:102010004B005B18033B0268D0188378002B0CD16F
:10202000002056E00121FFF7DDFF012051E0294BA0
:10203000294A6921294800F07DF8002B20D0227B15
:1020400093421DD85A00D318033B2268D218256842
:10205000EB5C8B421AD0002B1BD0227B934218D80A
:102060005A00D318033B2268D21853788B4216D0FB
:10207000002BF0D11A4B1B4A67211B4800F05AF87D
:10208000144B154A6921154800F054F84378137031
:1020900007E0104B104A6921104800F04BF84378D4
:1020A000537000238370437001222000FFF716FF56
:1020B0000200617B814205D02000FFF75BFE607368
:1020C000012006E0094B074A6D21074800F032F86D
:1020D000002070BD24650010CC6900104065001020
:1020E000646900108C690010D86800106C690010D9
:1020F00000BEFDE703000A4A1268002A08D0084A19
:102100001068C318074A9A4206D3054A13607047FD
:10211000034A05491160F2E701204042F7E7C04653
:102120000C0E0020000004205410002010B5FFF712
:10213000DFFF000010B582B00C001900002A0CD09F
:10214000084B002A0BD0019200932300020006489E
:1021500002F076FE0120FFF7CBFF044BF1E7034AC4
:10216000F1E7C046D8690010E8690010DC61001092
:1021700070B52B4B2B4A1A602B4B2C4A1A602C4BF8
:102180009A682A4B9343FAD12A4C01E008CC98472D
:10219000294B9C42FAD300F001F9234B274A1A60DD
:1021A000234B9B68DB43DB01FAD1254B40229A6726
:1021B0005A671A67DA66234C09E0234B234A8321C6
:1021C0002348FFF7B7FF2000FFF766FD0834214BD7
:1021D0009C4209D22368002BF5D0012BEDD12000C1
:1021E000FFF767FD0834F2E71B4CA1681B4DC022C6
:1021F000280002F0CDFCA560FEF735F8002800D0DD
:1022000000BEFFF72DF800F041FBFFF7E7FB144C91
:1022100001E008CC9847134B9C42FAD370BDC046EE
:1022200000E00040BFCDFBFE00F00040FE7F3C0020
:1022300000C00040100C0020200C0020FFFFFF0118
:1022400000F00140000C0020186A0010906A001095
:10225000386A0010100C002000ED00E000000020A3
:10226000200C0020240C00200FB400B583B00848D7
:1022700002F0B4FD049B002B07D005A901911800C2
:1022800002F0BCFD034802F0A9FD0120FFF730FF7A
:10229000806A0010F8630010F8B5DE4657464E46D7
:1022A0004546E0B505000F0092460A9A93424ED388
:1022B0001A0E91461E020A9A00233000494601F088
:1022C0002BFD80466C006419A4002F4B9C4664448F
:1022D0006368834200D260602B1FDBB29B46012BF8
:1022E0003BD9C0239B012343802212011A60AB001B
:1022F000264A9958002905D0506901F0CBFC0130DD
:102300000138FDD153465A0123685A40E0231A4050
:1023100080235B0123431A605A46012A28D980236F
:102320009B012343802212011A60434663604246A8
:1023300000233000494601F0EFFCAD00134B58512B
:102340000120F0BCBB46B246A946A046F8BD104BE2
:10235000104A2D211048FFF7EDFE012FC1D1C023F7
:102360009B01234303221A60A368DB07FCD5C9E75E
:102370002168794003220A401A60A2680123BB4009
:102380001342FAD0CBE7C04600800040980D0020F1
:10239000A06A0010006B0010B46A001030B583B062
:1023A0000C2000F00DFBFEF751FF00280DD000239C
:1023B00004E099002D4A2E4888500133092BF8D9A2
:1023C0002A4B2C4A5A6203B030BD2B4B00229A672D
:1023D00000F050FB294B01221A60274B5B6C012B4C
:1023E000FBD1274B03221A60234B9B6B012BFBD1A4
:1023F000022400940533234A0121234800F054FAB3
:1024000000940523214A0121214800F04DFA214B77
:102410000093002202210420FFF73EFF1E4D00958D
:102420002B00002201210520FFF736FF104C0094FD
:102430002300002200210720FFF72EFF0094230035
:10244000002200210820FFF727FF0A4B00932300FA
:10245000002200210920FFF71FFF00952B0000221A
:1024600000210620FFF718FFADE7C046980D0020B9
:10247000006CDC021BB70000008000403CB0004054
:1024800030B00040002F68590080024000389C1C8A
:1024900000C00240001BB700405973078000014B89
:1024A000C0587047980D0020074B9B681030800083
:1024B0001950BFF35F8FBFF35F8F044B002119608A
:1024C00082F310887047C04600ED00E0240100D080
:1024D00010B5091A04394808090B05D14005400D0B
:1024E000044B184380B210BD034B044A8B210448AF
:1024F000FFF720FE00E0FFFF106B0010206D0010C2
:10250000206B001010B5091A04394C08090B08D1CA
:102510004905490D064A11430180064B2343438078
:1025200010BD054B054A93210548FFF703FEC04641
:1025300000F0FFFF00F8FFFF106B0010F46C0010BC
:10254000206B001001238340034A10681840431E8B
:102550009841C0B27047C04600E100E0002904D0B5
:10256000034B1860034B18607047034B1860FBE780
:1025700080E200E000E100E080E100E010B501232E
:1025800083401800FFF7EAFF10BD0000024B9B6874
:1025900010308000C058704700ED00E070B50400B6
:1025A0000D00EFF3108672B60C4B1B68002BFBD0AE
:1025B000BFF35F8F2000FFF7E9FF094B984201D07E
:1025C000A84205D1320029002000FFF76DFF70BD41
:1025D000044B054A6E210548FFF7ACFD240100D0ED
:1025E000CD010010646B00103C6D0010206B0010DA
:1025F000F0B5CE46474680B583B006000D00EFF338
:10260000108872B6574B1B68002BFBD0BFF35F8F4F
:10261000554B9A6834001034A300D758534B9F424F
:1026200007D0AF4200D19BE00197514BFB1A2F2BF3
:1026300009D9424639003000FFF736FF03B0C0BC6D
:10264000B946B046F0BD3000FFF77CFF814600215F
:102650003000FFF793FFBFF35F8FFDF704FE002804
:1026600001D0844219D10123019C9C43414923009C
:102670003F4A9B1A5B415943090D49B20022A368A6
:10268000AB4212D00622A256002A0DDB53009B1843
:102690009B002200364CE418F1E71E21364B374AE6
:1026A000FF313748FFF746FD2200AB4251D10625E6
:1026B0006557002D39DB6B005B199A002C4B9B187A
:1026C0009A68A260DA79E27106229A56A2719B7921
:1026D0005BB2002B10DABD200002A0806B005B19FA
:1026E0009B00234AD318274A1178997115704946DF
:1026F0003000FFF743FF9CE7201D6B005B199B0038
:102700001B4A9B181A1D9B88D90A1C2907D15B05F7
:102710005B15023359005118FFF7DAFEDDE71A4B5B
:102720001A4A99211648FFF705FD00280CD1002A06
:1027300008D0FF239371164B9380124B1A78A27125
:102740001970D4E7094FF8E7201D1249FFF7DAFEA8
:10275000CDE7A921104B094A49000948FFF7EAFCD7
:10276000024F66E7240100D000ED00E0CD0100102B
:102770003C030020AAAA0000786C00100C6D001029
:10278000206B001051100020606C00102C6D0010A8
:1027900000BDFFFF760300209C6C001070B50400A4
:1027A000012606432D4BF31A2F2B28D8FDF75BFD8E
:1027B00000282BD0EFF3108C72B6294B1B68002B2E
:1027C000FBD0BFF35F8F274D22002449521A52419C
:1027D00055432D0D6DB2244B9B6880001B58B342AE
:1027E0001BD00022032A32D853009B189B001B49A0
:1027F000CB189B795BB2AB421FD00132F2E7782154
:102800001A4B1B4AFF311B48FFF794FCBD211A4BA2
:10281000174A49001748FFF78DFC134B9B68174A6E
:102820001A50174B1A78A2711D70BFF35F8F0C4BB3
:1028300000221A608CF3108870BD080053009918AC
:1028400089004118FF268E710E4A8A80E9E78C21A3
:102850000D4B074AFF310748FFF76CFC3C03002093
:10286000240100D0AAAA000000ED00E0A46C001032
:10287000D86C0010206B0010CC6C0010CD01001043
:102880005110002000BDFFFF646900100022044BBE
:1028900002E0044902C30132072AFAD97047C04650
:1028A00000E400E080808080F0B5CE4600B50400F2
:1028B0000E0091461F000C2001F0ECF905004301C9
:1028C0001B1A9901C91AC90009188901484601F063
:1028D000E1F90200103A98235B009A4233D87B1E3C
:1028E000062B36D8069B013B062B32D8069B9F420F
:1028F00035D34B461A09AA4237D33F04069B1D0322
:102900002F432368002B36DB234B9C4241D080228F
:102910005201224B1A60224B1A60224B9B68110015
:102920009943FAD12660A060231DC02292011A4368
:10293000212313602368002BFCDAE760082313606F
:1029400080BCB946F0BD184B184A16211848FFF74D
:10295000F1FB184B154A19211548FFF7EBFB164BF5
:10296000124A1F211248FFF7E5FB144B0F4A2221A0
:102970000F48FFF7DFFB22683F231340B342C3D168
:10298000A3681B051B0D8342BED1E368002FBBD19A
:10299000D6E780229201BCE700C0024000E0004080
:1029A00000F0004000C00040586D0010386E00106C
:1029B000746D0010B86D0010046E00101C6E0010D5
:1029C00080239B000343014AD36270470080054087
:1029D000024B1A68024B5A607047C046140E002022
:1029E0000080054010B50200164B8020C00518601D
:1029F000154B1648186000290AD0154BE021C90470
:102A00001960002A09D1124B802212061A6010BDEB
:102A10000C4BE021C9041960F3E753019B1A98009D
:102A2000801800010B4B186080235B04984202D38E
:102A3000084B094A1A60FFF7CBFF054B8022D205ED
:102A40001A60E4E700B0054008200140FCFF0100E7
:102A500000A00540140E0020FFFFFF0010B5034B3F
:102A6000034ADA61FFF7BEFF10BDC0460080054093
:102A70002131B76A064BAA2212011A602F22DA60AE
:102A8000044B054A1A60024B5B68002BFBDA704767
:102A9000004002400060024000B0FA00704710B5EC
:102AA000002802D00B684968984710BD010000203B
:102AB00007E083001B185B00501C08601078C018EA
:102AC00030380A681378303BDBB2092BF1D97047F4
:102AD000F0B5DE4657464E464546E0B583B09346D0
:102AE0001F000C9B9A460D9C0E9B99460F9B9B07C3
:102AF00003D0B8460F00060022E00192A3468846A4
:102B00004E46B9460700B44207D2551C4B464146D3
:102B10002020B84701342A00F5E73D004F465C46C7
:102B2000019B9B46B1464646B84637002E0007E05B
:102B3000013C551C5346185D43463900B0472A00F6
:102B4000002CF5D135003E0047460F9B9B0707D46C
:102B5000100003B0F0BCBB46B246A946A046F0BD8B
:102B6000B0464E46B9462F005D46531BB342EFD2E6
:102B7000541C4B4641462020B8472200F5E7F0B5EB
:102B8000CE46474680B585B0944698460C9D0D9C30
:102B90000EAB1B789946109A119B129EB7071CD456
:102BA000002B0CD0F7070AD54F46002F02D10C3767
:102BB000374204D0013B02E030272F5501349442C4
:102BC00001D21F2CF8D9F70707D59C4205D21F2C3C
:102BD00003D830272F550134F5E7F70615D57705CB
:102BE00005D4002C03D0944224D09C4222D00F9ACA
:102BF000102A2BD00F9A102A30D00F9A022A35D0E3
:102C00001F2C02D830222A5501341F2C05D84A46E1
:102C1000002A31D02D222A550134039602930194C3
:102C2000009543466246FFF753FF05B0C0BCB94666
:102C3000B046F0BD621E012C06D00F9F102F01D0B0
:102C40001400D4E7023CD2E71400D0E7B206D1D496
:102C50001F2CCFD878222A550134D1E7B206CCD523
:102C60001F2CCAD858222A550134C9E71F2CC7D8AF
:102C700060322A550134C3E7720703D52B222A5547
:102C80000134CAE73207C8D520222A550134C4E7E7
:102C9000F0B5DE4657464E464546E0B593B0814610
:102CA0008A46089209931CAB10CB1B789B461E9D4D
:102CB000219B9846002C03D1102342469A4390460C
:102CC0008023DB0046461E4042461A4212D0002CAA
:102CD00022D000260EE03033D9B2771C0AAB9955CA
:102CE0002900200000F0D6FFAC4216D31F2F14D8C5
:102CF0003E0004002900200000F0CCFFCBB2092BDD
:102D0000E9D94246920605D54121C918C9B20A3906
:102D1000C9B2E2E76121F8E7270043460693209B0A
:102D200005931F9B049303955B46029301970AAB9F
:102D30000093099B089A51464846FFF720FF13B0BD
:102D4000F0BCBB46B246A946A046F0BDF0B5DE4693
:102D500057464E464546E0B595B0089009910A920F
:102D60000B931E9E1F9C20AB1B789B46229B994673
:102D7000239D269B9A463300234303D110335246AA
:102D80009A4392468023DB0057461F4052461A4220
:102D900019D0330023432DD0002714E03033DAB2AA
:102DA0007B1C98460CABDA554A462B0030002100BC
:102DB00000F0B2FFA5421FD819D043461F2B1BD8E5
:102DC000474606000C004A462B003000210000F068
:102DD000A3FFD3B2092BE1D95246920605D5412271
:102DE000D218D2B20A3AD2B2DAE76122F8E7B14594
:102DF000E3D901E00023984653460693259B0593AB
:102E0000249B04934B4603935B46029343460193F2
:102E10000CAB00930B9B0A9A09990898FFF7AFFE39
:102E200015B0F0BCBB46B246A946A046F0BD0000B6
:102E3000F0B5DE4657464E464546E0B591B083466E
:102E40008A460C9298461A9C08941B9D099522006C
:102E50002B002000290001F0EEF9002800D0E5E069
:102E600001225242D74B2000290001F0DFF900284F
:102E700000D0DBE001225242D34B2000290001F0B8
:102E8000BFF9002800D0D1E000220023089E3000C6
:102E9000099D290001F0B4F9002800D0DDE0089870
:102EA0000999069007918023DB001E9A1A400D9223
:102EB0001E9A1A4201D106231C9306980799040012
:102EC0000D000A000600024300D1D1E0080D4005C4
:102ED000400DBE4CA44660440A03120BBC4B134386
:102EE0001F0001F0BBF9BB4ABB4B01F046F9BB4ADE
:102EF000BB4B01F01BF904000D000022B94B300060
:102F0000390001F00AF9B84AB84B01F036F902006D
:102F10000B002000290001F009F901F0B7F9814602
:102F200001F09CF904000D00B14AB24B01F025F903
:102F30000022B14B01F0FAF801F0A8F90600AF4AFF
:102F4000AF4B2000290001F018F904000D003000FB
:102F500001F084F9AB4AAC4B01F00FF902000B0011
:102F60002000290001F0D9F804000D0002000B0038
:102F700001F003F90A900B91A44BF31800261F05EA
:102F800022002B002000290001F0D0F80E900F91B4
:102F900022002B0000208021C90501F0BEF80400AA
:102FA0000D0000229A4B0A980B9901F0C8F80022F4
:102FB000984B01F0BBF802000B000A980B9901F046
:102FC000BEF80022944B01F0B1F802000B000A9801
:102FD0000B9901F0B4F802000B002000290001F069
:102FE000A5F802000B000E980F9901F0A8F8002236
:102FF000774B01F09BF832003B0001F0BEF8060071
:103000000F0004000D00069A079B01F00FF900283D
:1030100030D001235B429C46E14400227D4B3000CE
:10302000390001F08CF804000D0023E01E9B04938E
:103030001D9B03931C9B0293089A099B009201938A
:1030400043460C9A5146584600F0FCF811B0F0BCCB
:10305000BB46B246A946A046F0BD00230024069315
:103060000794069680231B069C46654407951AE73D
:10307000002399464B466333C62B1ED804261E9B5D
:103080001B0526D52B0023430FD0644A644B0698BA
:10309000079901F0C3F8002879D00022614B069807
:1030A000079901F0ADF8002871D01C9B4B4506DD57
:1030B0004A46981A431E1C9303E00526DFE70023C7
:1030C0001C938023DB001E9A1A431E9200260023C5
:1030D00099461D9B9E4264D29F1B02231E9A1A4052
:1030E0000A921E9A134202D0002E00D000274B46AF
:1030F000002B07D022002B000698079901F01FF83B
:1031000006900791002200230898099901F078F8A9
:10311000002848D1444B1E9A1340049303971C9BEC
:103120000293069B079C0093019443460C9A5146D8
:10313000584600F087F8002E00D187E71E9B9B06BB
:103140003DD54525441C4346020051462800D8473A
:103150004B46DA179B18534005220592013E049610
:10316000002203920A3202924A46D00F0190009345
:103170004346220051465846FFF78AFD0A9B002B22
:1031800000D163E702005F460C9E1D9D54E01C9B2E
:10319000002B9ED00D9B002B9BD01C9B013B1C93B6
:1031A00097E7002799E7069C079D220029008020C9
:1031B0000006844661440B0006920793AAE7652542
:1031C000C0E7C046FFFFEF7FFFFFEFFF01FCFFFFFF
:1031D0000000F03FFB799F501344D33FB3C8608B8E
:1031E000288AC63F0000F83F61436F63A787D23F3C
:1031F00071A379094F930A400000E03F1655B5BB13
:10320000B16B0240EF39FAFE422EE63FFF030000A9
:1032100000002C4000002440000018402D431CEB0F
:10322000E2361A3F80842E41FFF7FFFF541C4346CD
:1032300051462020B8472200931BAB42F6D3100022
:1032400004E7C046F0B5DE4657464E464546E0B573
:1032500095B00690079193469946209F1E9A1F9B12
:103260001000190000F0E7FF002831D1012252427E
:10327000BF4B1E981F9900F0C3FF002837D10122D1
:103280005242BC4B1E981F9900F0D0FF00283DD140
:103290000022B94B1E981F9900F0C8FF002850D19A
:1032A0000022B64B1E981F9900F0AAFF002848D1B3
:1032B000002200231E981F9900F0A2FF002850D181
:1032C00000239846229B5B0500D4B6E0002458E01A
:1032D000229B0393219B029303230193A84B00930A
:1032E0004B465A4607990698FFF7F2FB0EE1229BE0
:1032F0000393219B029304230193A24B00934B461B
:103300005A4607990698FFF7E3FBFFE00423229A49
:103310001A4022990B4210D09B4B002A0FD0042256
:103320002299039121990291019200934B465A46AA
:1033300007990698FFF7CCFBE8E0944BEDE70322F2
:10334000EEE7229B0493219B039302971E9B1F9CF5
:10335000009301944B465A4607990698FFF768FD7B
:10336000D4E01E9A1F9B0020002100F0D6FE1E9084
:103370001F9101239846A5E70CAB30221A55013F57
:1033800001341F2C01D8092FF6D81E981F9900F080
:103390007DFF050000F062FF02000B001E981F99E0
:1033A00000F0BBFEFA007A4B9B181A685B680A9221
:1033B0000B9300F0E2FE0890099100F08BFF0600ED
:1033C00000F048FF02000B000898099900F0A5FEE4
:1033D0000890099100226F4B00F028FF00282ED0A2
:1033E0000136300000F036FF02000B000A980B99FE
:1033F00000F00CFF002801D001350026002F2CD151
:10340000280000F02BFF02000B001E981F9900F00F
:1034100084FE06000F0000225E4B00F0F1FE002843
:1034200046D100225B4B3000390000F0FFFE00283F
:103430003ED1EB073CD501353AE0062746E70022AE
:10344000544B0898099900F0DBFE0028D6D1002ED5
:1034500001D0F307D2D50136D0E7AA461F2C11D8E8
:10346000013F0A21300000F015FC651C30310CAB27
:1034700019550A21300000F00DFC092E0ED9060066
:103480002C00EBE755461F2C0CD87B1E002F09D0D3
:103490000CAA302111551F000134F4E72B005546CA
:1034A0001C00F0E71F2C03D80CAB2E221A55013458
:1034B0001F2C10D80A21280000F0C4FB661C3031F4
:1034C0000CAB19550A21280000F0BCFB051E01D0E9
:1034D0003400EDE734000323229A1340012B1CD063
:1034E0001F2C06D84346002B32D00CAB2D221A5588
:1034F0000134229B0393219B029301940CAB009314
:103500004B465A4607990698FFF7E2FA15B0F0BC09
:10351000BB46B246A946A046F0BD219B002B13D066
:103520004346002B02D10C3313420FD0219B013BA9
:103530002193190003E00CAB30221A5501348C4260
:10354000CED21F2CF7D9CBE72199F8E72199F6E7DE
:10355000229B5B0704D50CAB2B221A550134C8E71C
:10356000229B1B07C5D50CAB20221A550134C0E79E
:10357000FFFFEFFFFFFFEF7F65CDCD4165CDCDC1F3
:10358000506E0010546E0010486E0010446E001013
:10359000407000100000E03FF0B5DE4657464E4652
:1035A0004546E0B593B082468B469046119300297C
:1035B00000D1EBE200275546119B1878002800D176
:1035C000E7E2252809D07C1C43463A005946A84723
:1035D000119B013311932700EEE70133119300246F
:1035E000119A11780B00203BD8B2102803D8830021
:1035F000D048C3589F460B00303BDBB2092B2CD977
:103600002A292FD000230A93119B1A782E2A39D009
:1036100000239A46119A1378683BD9B2122976D8BA
:103620008B00C549CB589F4601231C4301321192A0
:10363000D6E702231C4301321192D1E704231C4335
:1036400001321192CCE708231C4301321192C7E7E3
:1036500010231C4301321192C2E711A8FFF726FA8A
:103660000A90D1E71C9B1A1D1C921868002804DBE5
:103670000A90119B01331193C6E702231C43434276
:103680000A93F6E78022D20014435A1C11925A780A
:103690001300303BDBB2092B04D92A2A07D00023C0
:1036A0009A46B7E711A8FFF701FA8246B2E71C9BDA
:1036B0001A1D1C921868002804DB8246119B0133F6
:1036C0001193A7E70020F8E780235B002343511CF8
:1036D000119152786C2A01D01C0018E0C0239B0085
:1036E0001C430131119112E080232343511C11919D
:1036F0005278682A01D01C0009E0C0231C43013124
:10370000119104E080235B001C4301321192119B54
:1037100018780300253BDAB2532A00D92CE2930033
:10372000864AD3589F4680239B001C430132119246
:10373000EDE780235B001C4301321192E7E7782814
:1037400009D0582838D06F2838D0622838D01023B4
:103750009C430A2600E01026582833D0692803D05D
:10376000642801D00C229443630501D501229443BF
:1037700069282AD0642828D0A30500D59FE0E30556
:1037800000D5B8E0630600D4CAE01C9A111D1C9154
:103790001168FF220A4005940A9B04935346039341
:1037A000029600230193009243463A0059462800AE
:1037B000FFF76EFA070027E01026CDE70826CBE7D3
:1037C0000226C9E720221443C8E7A30520D4E30555
:1037D00050D4630666D51C9A111D1C911168FF22F6
:1037E0000A40D317D118594005940A9B04935346B5
:1037F00003930296D20F0192009143463A00594634
:103800002800FFF745FA0700119B01331193D3E617
:103810001C9BDA1D07218A43110008311C91116895
:1038200053689C46DB170C930D930C9A0D9B10006C
:1038300048400E90624653400F930E980F990C9A91
:103840000D9B801A99410E900F9108940A9B079343
:10385000534606930496002305936346DA0F0292BB
:103860000090019143463A0059462800FFF76EFA4E
:103870000700C9E71C9A111D1C911268D317D118B3
:10388000594005940A9B0493534603930296D20F22
:103890000192009143463A0059462800FFF7F8F993
:1038A0000700B1E7230605D51C9A111D1C910023C2
:1038B000D25E96E71C9A111D1C91126891E71C9B21
:1038C000DA1D07218A43110008311C9108940A9BD4
:1038D00007935346069304960023059302931368B7
:1038E00054680093019443463A0059462800FFF774
:1038F0002DFA070088E71C9A111D1C9105940A9B5C
:103900000493534603930296002301931368009394
:1039100043463A0059462800FFF7BAF9070073E713
:1039200023060DD51C9A111D1C9112681204120C4D
:1039300031E7C0465C6E0010A06E0010EC6E001007
:103940001C9A111D1C91126825E746281AD01C9B51
:103950000733072293431A0008321C9204940A9AF0
:103960000392524602925C681B680093019443469E
:103970003A0059462800FFF765FC0700119B013308
:10398000119319E620231C43E1E7672801D047285B
:1039900002D180231B011C43452801D0472801D1B7
:1039A00020231C431C9B0733072293431A00083231
:1039B0001C9204940A9A0392524602925C681B6815
:1039C0000093019443463A0059462800FFF730FA25
:1039D0000700119B01331193EEE502231A002240E8
:1039E000924623421FD001241C9B1A1D1C927A1C54
:1039F0009146187843463A005946A8475346002B4B
:103A000016D1119B013311934F46D5E5561C434601
:103A100059462020B847230032005C1C9D42F5D84F
:103A20003D001700E0E701233A002F000A9DF4E76C
:103A30004A46A9460A9D06E0571C4346594620209F
:103A4000C84734003A00661CA542F5D84D46914659
:103A5000D7E71C9B1A1D1C921B6899465346002BE6
:103A600000D1013B4E4601E0013613003278002AB6
:103A700002D05A1E002BF7D14B46F21A1092802327
:103A8000DB0026001E401C4203D0524501D953469C
:103A9000109302231A0022400B92234205D03A00D1
:103AA00037004C46A946554620E03A00109B5F4639
:103AB000B3462E0006E0551C434639002020B0478F
:103AC00023002A005C1C0A999942F4D835005E460E
:103AD000BB46109437004C46A946554606E01D00EB
:103AE0000134561C43465946C84732002078002806
:103AF00004D0002FF4D06B1E002DF0D117004D46DE
:103B00000B9B002B03D1119B0133119354E50A9FAA
:103B1000109B06E0561C434659462020A847230028
:103B200032005C1C9F42F5D81700ECE721231C43B0
:103B30001C9B1A1D1C921B68009305940823049378
:103B400053460393102302930023019343463A0004
:103B500059462800FFF79CF80700119B0133119389
:103B60002AE57C1C43463A0059462520A847119B6C
:103B70000133119327001FE57C1C43463A00594648
:103B8000A847119B01331193270015E50A4B9A466C
:103B900010E5AA46474502D343465A1E00E03A00C4
:103BA000434659460020D047380013B0F0BCBB460E
:103BB000B246A946A046F0BD9D2A001000B585B0CA
:103BC000029003910121009313004A4202A9024886
:103BD000FFF7E2FC05B000BD9F2A00100148042158
:103BE000014B1847900300200D3C001010B5010058
:103BF00018231B8814221088984710BD10B50100A7
:103C000018231B8816221088984710BDF0B5C646A9
:103C100000B507000E0000250123984600E001359D
:103C2000B5420AD2AC003C192068FFF7DFFF2060E4
:103C30000028F4D100239846F1E7404680BCB846FE
:103C4000F0BD0000124A936F9B0815D29066D166B2
:103C5000002905D0FFE7FFE7FFE7516F106F7047BE
:103C600004B580210906C2175140002800D0C8437E
:103C700001F0F6FF002104BDF0B5146E556E576FCC
:103C8000166FFFF7E3FF1466556657671667F0BDBA
:103C9000000000D0114A936F9B0813D21066516642
:103CA000002905D0FFE7FFE7FFE7516F106F70476E
:103CB00004B5002801D00020C04301F0D1FF00214D
:103CC00004BDC046F0B5146E556E576F166FFFF702
:103CD000E5FF1466556657671667F0BD000000D013
:103CE00094464E4A926F9208624601D230E0C04636
:103CF000F0B54A4EB56F6D08FCD3346E756E776FB4
:103D0000366F00F025F89446444A146655665767A6
:103D100016676246F0BDC0469446404A926F9208CC
:103D2000624601D258E0C046F0B53C4EB56F6D0812
:103D3000FCD3346E756E776F366F00F04DF8944695
:103D4000364A14665566576716676246F0BDC04628
:103D5000002B24DB11D000293EDA00B5C9434042D4
:103D600000D1013100F038F8C943404200D101319F
:103D7000DB43524200D1013300BD002AEBD10028C1
:103D800001D1002905D00020C90FC90701D1C043C6
:103D9000410800B501F05CFF0022002300BD00B522
:103DA00000290ADBDB43524200D1013300F014F852
:103DB000C943404200D1013100BDC943404200D156
:103DC0000131DB43524200D1013300F005F8DB43FF
:103DD000524200D1013300BD002923D1002B18D15C
:103DE000002A0CD0BC460D4F38667A6600210023AD
:103DF000FFE7FFE7FFE77A6F386F674670470028F5
:103E000001D00748010000B501F022FF0022002385
:103E100000BD02000B00002000217047000000D010
:103E2000FFFFFFFF002B00D0BFE0130C28D1002ABA
:103E3000E7D080B4114F39667A66FFE7FFE730B408
:103E4000040C7B6F396F1B0423433B667A66FFE7E4
:103E5000FFE7FFE7C04684B27B6F3D6F1B0423433F
:103E60003B667A66FFE7FFE7C04600232C042D0C73
:103E70007A6F386F00196941B0BC7047000000D0FC
:103E8000F0B594460025140E01D112020835140F26
:103E900001D112010435940F01D192000235D40FE3
:103EA00001D152000135D40B0134254F7C66254CDD
:103EB0003C660E0C93B2FFE7FFE7FFE73C6F6643FB
:103EC000360C7703BE467343DF0B5B04C01AB9415F
:103ED000130C7343DB18C91ACE086643360CB6447C
:103EE00093B273431F0F1B01C01AB941130C7343E4
:103EF0001F0B1B05C01AB941860D8F023E43664356
:103F0000360C092D24DB520A7243801A7703460AC5
:103F10006643360C16235B1BDE40DF40BF19644648
:103F20006643821B7046043506330100D940A84021
:103F3000C01900D30131A24206D20023F0BD000017
:103F4000000000D0FFFFFFFF121B0130F3D3F1E7A9
:103F500009277F1BFE406446A2B27243801A00D23A
:103F60000139220C7243130C1204821A99410B007E
:103F70007046043513370100F940A840801900D37A
:103F80000131002B02D1A2420AD2F0BD013000D390
:103F90000131121BFAD2013BF8D1A24200D2F0BD8E
:103FA000013000D30131121BF7E7F0B51C0C00D033
:103FB00080E00CB400251C0A04D11B02160E33430A
:103FC000120208351C0B04D11B01160F33431201DA
:103FD00004359C0B04D19B00960F334392000235AD
:103FE000DC0B02D192185B4101351C00971864412B
:103FF0000134464F7C66464C3C660E0CFFE7FFE7FB
:10400000FFE7C0463C6F6643360C7703BE4697B267
:104010007743C01B00D20139C01B00D201399FB2C7
:104020007743C91BC91B170C77437E04FF0B801B0A
:10403000B941CE086643360C0C2D33DBB644120B67
:104040001F053A431B0B97B27743C01B00D20139BF
:104050009FB27743C91B170C77433E043F0C801B6C
:10406000B941860D8F023E43664329277F1BFE40E0
:104070000C3D7746AF40BF1930BCA2B2ABB2724321
:104080007343801A9941220C7243130C1204801A54
:10409000994102000B000137001BA941F9D2781E9B
:1040A0000021F0BD0C277F1BFE4077467F0BAF4001
:1040B000FF19E0E700245D1C07D0144F7D663966C8
:1040C000FFE7FFE7FFE7FFE73C6F95B29EB265436E
:1040D0006643401BB141150C1E0C65436643360414
:1040E0002F0C3E432D04401BB141994204D20200E3
:1040F0000B0020000021F0BD01D19042F7D3801ABF
:10410000994101349942F2D3F6E70000000000D053
:10411000FFFFFFFF48404140484018B41B4B5B681D
:10412000FC46019308BD04DFEF43001018B4174BA1
:104130001B68FC46019308BD00DFF943001094465C
:10414000134A926F920809D2624618B40F4BDB688B
:10415000FC46019308BD0CDFB14600100C4AF0B5D7
:10416000146E556E576F166F6246FFF7EEFF084AE2
:104170001466556657671667F0BD18B4034B9B6805
:10418000FC46019308BD08DF55450010300E0020A5
:10419000000000D0FFB550404240504059404B40D5
:1041A000594000E0FFB5154F4C00640D03D0BC42F0
:1041B00004D10C0314D80020090D09055C00640D1E
:1041C00003D0BC4204D11C030AD800221B0D1B05DE
:1041D00001264B4009D44B4003D58B4200D182428B
:1041E000FFBD9942FCD19042FFBD0B43DB18034356
:1041F0001343F5D0C9434918FFBD0000FF07000075
:1042000000B5FFF7CFFF804100BDC04600B5FFF706
:10421000C9FF01D9002000BD012000BD00B5FFF796
:10422000B9FF01D9002000BD012000BD00B5FFF796
:10423000B1FF804100BD012040054A00121804D89A
:104240005A00121801D80020704701207047002042
:10425000704700000021002805D17047C117484071
:10426000401AFAD0C90713B5064B1B6898470CBC17
:10427000441CA2401005120B0349091B09051943F0
:10428000114310BD300F00201F04000010B54C007A
:10429000620D8023D218DB00D21A5B057E2A10DD66
:1042A0009E3A13DACC170903490819435242D14008
:1042B000640001341532202A05DAD04008436043F7
:1042C00010BD002010BD0846604310BDC80FC018C7
:1042D000013810BD18B4044B5B6AFC46019308BD5D
:1042E00024DF614800100000300E002070B5132359
:1042F0001C78012C14D0012C14DC022C02DC1F4A87
:104300001F4B9A641F48FFF771FC1F4B186070BD6C
:1043100099001A481A4A885001331F2BF8D9EAE746
:104320000023FAE71948FFF769FC05001848FFF772
:1043300065FC023803789B007F2B19DD8022290061
:104340000F4800F025FC022CD7D1124B1A88B52358
:104350001B029A4209D1104B1A88104B9A4204D181
:104360000F4B1A880F4B9A42C7D00020FDF77CFFF5
:104370000D4B0E4A32210E48FDF7DCFEB54300100E
:10438000300E00204C330000300F0020534400005A
:104390005346000054380000D83800004946000059
:1043A0009C380000594600009070001040710010C9
:1043B000F070001007B56046002800D100BE0188EB
:1043C0000A0A0230DF2AFAD1C9B2820804D302886D
:1043D00040880004104300E00068024A50500390F7
:1043E00007BD0000300E00200FB403BC0CBCF0B5BC
:1043F0000124E407634000E0F0B50C0DCF0F661E0A
:104400003605891B640503D3C943404200D30131FB
:10441000640D03D0661CF60A07D0E41B00207F0061
:10442000791C89078912803C24031D0DDF0F6E1E45
:1044300036059B1B6D0503D3DB43524200D301338A
:104440006D0D03D06E1CF60A07D0ED1B00227F0015
:104450007B1C9B079B12803D2D032F1B661B58D492
:10446000A446202E46DA20371400BC401D00BD4073
:10447000F24033412A4380185941CB0F05D0C9433C
:10448000C043002264425041514162464D0D28D143
:104490000D0D07D100281FD0241940414941013A90
:1044A0000D0DF9D0640006D3013000D30131002C8A
:1044B00001D140084000013A0BD4941CE40A04D115
:1044C00012051144DB071944F0BDD907204B1943ED
:1044D00000E0D9070020F0BD0029DDD1002CDBD1A0
:1044E000F0BD0132C6074008CD0728434908002E19
:1044F000E1D0D9E73C2E29DA203E40371400BC40F9
:1045000000D00124F24014431A00BB401C43D317CF
:10451000ACE7AC46202F08DA20360400B4400D008A
:10452000B540F84039412843A5E73C2F0CDA203F3D
:1045300040360400B44000D00124F8400443080091
:10454000B1400C43C117EAE710001900002494E7BA
:104550000000F07FF0B50C0D661E3605891BE60ADB
:104560006405640D02D0651CED0A04D00020012111
:104570000905803C2403A4461C0D671E3F05DB1B78
:10458000E70A6405640D02D0651CED0A04D0002220
:1045900001231B05803C24037740644497B484B214
:1045A00096B27443070C7E43150C6F4380B2684388
:1045B000361802D3012000043F183004350C0019CE
:1045C0007D41844688B29AB250430C0C62431F0C62
:1045D0007C438EB27E43921902D301263604A4197D
:1045E0001604170C3618674101BC81B29AB25143C8
:1045F000040C62431B0C5C4380B25843121802D374
:104600000120000424181004130C401863412D18D5
:104610005E410020474106BC88B293B258430C0C5F
:104620006343120C544389B251435B1802D30121F6
:104630000904641819041A0C091862416D185641CE
:104640000020474118BCF902720D1143F0026A0DB7
:104650001043ED020A0D03D16D1940414941013B60
:10466000124E9B1B7600B3420ED26D0007D3013071
:10467000002671416646354301D1400840001B05C4
:10468000C918E4072144F0BD0BDA013306D101302B
:1046900004D101314F0D01D04908F2E7E1070020B4
:1046A000F0BD013631050020EBE70000FF030000FC
:1046B000F0B51C0D671E3F05DB1BE70A6405640DA2
:1046C00002D0661CF60A04D0002201231B05803CA0
:1046D0002403D0252D060026F6432E661E096E669D
:1046E000CE0FF619B44649004F0D02D07E1CF60AD3
:1046F00003D000200021403F3F033E1BB600B444DE
:10470000013F7F05C91B49082E6F013676089C02C0
:10471000950D25437543ED137543AD1301356D10AC
:10472000F603761B0CB4CC02450D2C43A2B2B3B2F7
:104730005A43270C7B43350C6F43A4B26C431B19BF
:1047400002D3012424043F191C041D0CA4187D412C
:1047500024196D41009A91B2ACB26143170C7C43AD
:104760002B0C5F4392B25A43A41802D301221204C5
:10477000BF182204230C52187B41019C6C431B1967
:10478000520ED9010A434401A01A81B2B2B2514378
:1047900003145A43360C734387B27743D617D219A2
:1047A00000277E4136049B191704160C7F185E41C2
:1047B0007316ED18F301002680337541A90F06D159
:1047C0006400690AE8055B0A184309D22FE0042255
:1047D000944480337541A90AA8059B0A184326D33F
:1047E000404149412404009A019B0D005543641B3C
:1047F0004343E41A95B286B27543170C7E43030C0B
:104800005F4392B25A43B61802D301221204BF1872
:104810003204330C52197B4152429C41002C02D489
:104820000022013051414008CA071043490802B034
:104830006246D7079210084BD218084B9A4203D20F
:1048400012058918C919F0BD0020002A01DC3900C1
:10485000F0BD01331905F5E7FD030000FE07000078
:10486000002200B5203200F004F8080000BD00006E
:1048700000220B150AD410B5944600F031F8141438
:10488000013400DA0021CB17144C2047002000210E
:1048900070476244343A0CD40C2A07DA0400914081
:1048A000904052422032D440214310BDD843D943D6
:1048B00010BD203207D40C469440524220321141A0
:1048C000D040204310BD0800C917203203D4524203
:1048D0002032104110BD1800190010BD934800107F
:1048E0000A0DCC0F531E1B05C91A520503D3C94329
:1048F000404200D30131520D03D0531CDB0A07D0D4
:10490000121B00206400611C89078912803A12037F
:10491000014BD21A70470000FF030000514343438C
:10492000C9188C46110C83B24B4310B4040C61437C
:1049300092B280B2504362431C041B0C001910BC9D
:1049400059411304120CC0185141614470470000D2
:1049500048404140484000239C46114B5B68184743
:1049600000239C460E4B1B6818470E4A936F9B080A
:1049700004D200239C460A4BDB681847F0B5146E3E
:10498000556E576F166FFFF7F4FF064A14665566AB
:1049900057671667F0BD00239C46014B9B6818477C
:1049A000340F0020000000D0491A002808D1084622
:1049B00070470000C10FC90700D54042002817D03A
:1049C000F44603B40B4B1B68984706BC81409E38E5
:1049D0004042803107D20B0607D04900490AC00582
:1049E0001043084360470130F8E7490A8902F5E7B8
:1049F00070470000300F002000239C46014B5B6A8B
:104A000018470000340F002070B513231D782A4882
:104A1000FFF7F4F80400012D11D0012D09DDA31ECC
:104A20001B789B007F2B40DD80222100234800F073
:104A3000AFF82348FFF7DAF8224B186070BD542214
:104A400001001E4800F0A4F81F4B1A881F4B9A4221
:104A50001CD1A7239B011A881D4B9A4216D11D4BCE
:104A60001A881D4B9A4211D11C4B1A8894239B0122
:104A70009A420BD11A4B1A881A4B9A4206D11A4BFA
:104A80001A681A4B9A4201D1152307E01848FDF71E
:104A9000EBFB99001748094A885001331F2BF8D9BE
:104AA000144A064B1A62DA61B7E7134B134A4221E4
:104AB0001348FDF73FFBC04653460000340F00206B
:104AC0004C330000300F0020EE290000C40F00001E
:104AD000C20D0000962B0000C0B50000182B00008E
:104AE000CC2A000010B50000FC2C000051ED8764BA
:104AF000DC610010054B001054710010D8710010DB
:104B00008871001007B56046002800D100BE0188FA
:104B10000A0A0230DF2AFAD1C9B2820804D3028815
:104B200040880004104300E00068024A505003909F
:104B300007BD0000340F002070B504000A4E30009D
:104B400001F09EF8200000F00FFC0500300001F09D
:104B500077F8002D05D02C19044B9C4201D8280071
:104B600070BD0348FDF780FB000C0020000004200E
:104B7000EC71001001480421014B1847A0030020EC
:104B80000D3C0010014B1B6818470000A0030020DB
:104B9000014B5B6818470000A003002010B503001C
:104BA000080011001B68984710BD0000F8B5070009
:104BB0000D001600437C002B02D0002400200CE0E6
:104BC00003681100280098472DE03B7C10E002218B
:104BD00015483B689847601C0134B44214DA002C35
:104BE000F3DD2B19013B1B780D3B5A425341DBB2DD
:104BF0002A5D0A2AF0D1002BEED1A042E7DA211A71
:104C000028183B689847E2E7B04203DA311A2818BF
:104C10003B689847002E06DDAD19013D2B780D3B12
:104C20005A4253413B74F8BDB472001070B5050090
:104C30000368002B16D00C4B1C6805E0290004C942
:104C40002000FFF7B3FFE468002C09D02368002B95
:104C5000F9D0064B1B68002BF0D0A342F3D1EDE74F
:104C600000232B6070BDC046000E0020080E0020FF
:104C700070B505000C000B68802B05D021684B1C1B
:104C800023606418257170BD0800FFF7CFFFF5E7BA
:104C900010B582B0D0231B0600241C5701A9074879
:104CA00000F0E6FF002806D1019B9C4203D0034898
:104CB00000F0E6FF012002B010BDC046080C002045
:104CC00010B5024800F0BCFF10BDC046080C002023
:104CD000F0B5CE46474680B583B006000D0090463D
:104CE0001C00FFF7D5FF81466B1C05D0002C08D0B7
:104CF000194F1A4B1C6807E0300000F03DFE05001C
:104D0000F4E7174FF5E7E468002C17D02368002B71
:104D1000F9D0144B1B68002B01D0A342F3D12A0019
:104D200031002000B8474346002BECD06B46D91D1C
:104D30000A230B7001222000B847E4E74B46002B02
:104D400007D16B1E9D41E8B203B0C0BCB946B04666
:104D5000F0BDFFF7B5FFF4E79D4B0010000E0020FB
:104D6000AD4B0010080E002010B582B004006B4659
:104D7000D81D0470002300220121FFF7A9FF2000A5
:104D800002B010BD0C4B1A68130001E01A00DB687A
:104D9000002B08D08342F9D1002903D1DB68D3600E
:104DA0000023C36070470029FCD0002A01D0D060E6
:104DB000F8E7014B1860F5E7000E002010B5064B30
:104DC0001C6801E09847E468002C03D06368002B5E
:104DD000F8D1F8E710BDC046000E002070B5050000
:104DE00000F0CAFD04000023012201002800FFF7A3
:104DF0006FFFFFF7E3FF200070BD000070B5A2B0A9
:104E000004000E00FFF744FF05008422002101A8E2
:104E1000FFF7B8FE3300220001A90848FEF7CEFED6
:104E2000040001A8FFF702FFFFF7C8FF002D02D121
:104E3000200022B070BDFFF743FFF9E7714C00106E
:104E40000FB400B583B004A901C90191FFF7D6FFE3
:104E500003B008BC04B0184710B500F085F810BDC9
:104E6000F0B583B005000E0000240FE06B46D91D9D
:104E70000D230B700020002816D193699B06FCD4EB
:104E80000B78136001300131F5E70134B44219DACF
:104E90000D4B1A682F5D0D4BD31859424B415B00E7
:104EA0000B495B5EBB42E1D06B46D91D0F70002001
:104EB0000028EAD193699B06FCD40B78136001307B
:104EC0000131F5E703B0F0BD4C1000200080FCBFBD
:104ED00048100020F0B583B006000F00002004E069
:104EE0006B4607331B7823702800B84215DA0E4B47
:104EF0001A6893691024210019401C420DD1451CE9
:104F000034186B46D81D0029EAD19369DB06FCD41E
:104F10001368037001310130F5E7002801D003B0B8
:104F2000F0BD0338FBE7C0464C10002070B51500FB
:104F30001C000B4B1860FCF7F3F9002D06DA002C6F
:104F400009DA01210748FFF71DFF70BD0221280083
:104F5000FCF7F2F8F3E702212000FCF7EDF8F0E7A8
:104F60004C100020B003002010B5064B1B78064BF8
:104F70001B78E1210123002249020448FFF7D6FFF4
:104F800010BDC046607400106474001000400340FF
:104F900003BD10B50400FDF779FCA04710BDD02378
:104FA0001B061B6D9B07FAD5D0231B06586540BF17
:104FB000704700E020BFD0231B061B6DDB07F9D52F
:104FC000D0231B06986D7047F0B587B004000D0024
:104FD00017000F20FDF7B6FA060000210F20FDF79D
:104FE000CDFA0023009301930133029303970495B4
:104FF0000594002500E00025AB006A469C58002C73
:1050000012D02000FFF7CBFFFFF7D3FF8442F2D18D
:105010000135052DF0D931000F20FDF7AFFA07B0AB
:10502000F0BDD0231B069B6DD0231B061B6DDB0739
:10503000F7D440BFE5E7000010B50B00910711D190
:1050400003218A439A1811000C39086010000838AF
:105050000360043A064B1360064B9A680648FFF754
:10506000B3FF10BD054B064A6E210648FDF762F8F6
:10507000934F001000ED00E0914F00105C730010A2
:10508000787300101073001010B5064A064B9A4250
:1050900005D3110080221201FFF7CEFF10BD0121C0
:1050A0004942F7E700080420000004200523CB56FE
:1050B000002B01DB934211D1094B9C4660444342D3
:1050C00058418000074BC058097901238B40013BB0
:1050D0009340184043425841C0B270470020FCE75B
:1050E0000000D0AF7C0D002070B50A79202A19D8B5
:1050F000174B9C466044434258418000154BC458AE
:1051000001239340013B497949B2002910DB080093
:105110002025AA1A914218DC8B401C4201D00120A4
:10512000404270BD0C4B0D4A40210D48FDF702F87E
:105130002020801A002805DB1A0082401442F0D09B
:105140000138F7E701204042EBE701204042E8E761
:105150000000D0AF7C0D00209C7300102074001064
:10516000C873001070B505000C001600FFF79EFF15
:10517000002801D0002007E01548FDF775F88319D5
:1051800012339B005A510130237983420FD923787F
:10519000617809021943A27812041143E3781B06CF
:1051A0000B4342009A5A530BE9D19219E7E70122C7
:1051B0009A401300013B074A944665446A425541B0
:1051C000B340054AAD00A9580B43AB5070BDC04673
:1051D0000C7400100000D0AF7C0D0020F8B5050065
:1051E0000E00FCF703F8070031002800FFF77CFFF2
:1051F000041E09DB020031002800FFF7B3FF38006E
:10520000FCF700F82000F8BD0148FDF72DF8C04676
:105210000C740010F0B505AC25784C006418E4005F
:105220000419DC342468A446002D01D01F2614E0A4
:10523000002612E05401A0256D0525434C0064189A
:10524000E40004192700DC373D600D4D3543D834A8
:105250002560053B05321F242240052BEAD89B061A
:10526000520113434C006218D20082181500DC353D
:105270002B60034B1E43D832166063462B60F0BD93
:1052800080E00000F0B58BB004000D00160002684D
:105290000121A9408A430260002B35D069004919D9
:1052A000C90041180A00C8321868106004325868F2
:1052B0001060043298681060DB68DC310B606900B4
:1052C0004B19DB00D033E3188022520113438022B4
:1052D00012061A601A60234BAB40A3602268281D97
:1052E00001231F0087403A432260226828000830CB
:1052F0008340134323601F2216404919C9006418D4
:10530000D83426600BB0F0BD1022002106A8FFF7AC
:1053100039FC80235B020693F8235B02079380230A
:10532000DB020893C0231B030893102206A902A8DE
:10533000FFF72EFC6B005B19DB00E3181A00C83284
:1053400002991160039A01921A00CC3201991160FE
:10535000049A01921A00D03201991160059ADC3347
:105360001A60ACE70101010110B5034B0100186898
:1053700000F004F810BDC046C4030020F0B54E464E
:105380004546DE465746E0B50D000B35060083B0B6
:10539000162D22D8102900D9B2E000F0B1FA10255C
:1053A00018230220CC4FFB181A005C68083A94427C
:1053B00000D1B5E0032362689A431300E268A16854
:1053C000CA6091600122E318596830000A435A60AC
:1053D00000F09EFA2000083095E007239D4300D599
:1053E0008EE0A94200D98BE000F08AFAFC235B0032
:1053F0009D4200D2A7E1680A00D18BE0042800D9C1
:105400007AE138239846A80980443930C100B24F68
:1054100079184C680839A1420ED003239C4604E059
:10542000002ACBDAE468A14206D06246636893435F
:105430005A1B0F2AF4DD40463A003C690832944278
:1054400000D178E003236168994389460B00491B2A
:105450000F2900DD7BE17A613A610029B2DA80220E
:105460009200914500D30FE15909DA0801238B40DE
:10547000D2007968D2190B4391687B60E260A16029
:105480009460CC60012182109140994259D80B421E
:1054900005D103229043490004300B42FBD0032383
:1054A0009846C3009946B944CC4682466346DC68B8
:1054B000A44507D12CE1002A00DB35E1E468A445CE
:1054C00000D125E14246636893435A1B0F2AF2DD5F
:1054D00001208046611905436560A068E5680837CA
:1054E000C560A86040461043F960B9604860CF606D
:1054F00030008F60E25000F00BFA2000083002E02C
:105500000C230020336003B0F0BCBB46B246A94672
:10551000A046F0BD80213F2340209846890076E7D1
:10552000DC680230A34200D044E73A003C6908320C
:10553000944200D086E701217B6882109140994215
:10554000A5D90323BC6862689A439146954203D863
:10555000531B0F2B00DD89E023004B445F4A01936E
:105560005F4B93461B681268EB18013200D13DE196
:105570005C4A944663441B0B1B0300933000009964
:1055800000F0E8F903008046013300D1FAE0019B06
:10559000834200D9F4E0544B00981A009A461268EE
:1055A00003009446514663440B6001991A0041453B
:1055B00000D151E15B461B68013300D156E14346FF
:1055C00001995B1A9A1853461A60072342464146CE
:1055D0001A400192194200D112E108239846881A14
:1055E000424B0099804441449B1A5B1A1B051B0DDA
:1055F0000091300019009B4600F0ACF9431C00D12B
:1056000050E14346C01A03005B44009353465246A0
:105610001B6801215B44136042464046BA60009A11
:105620000A434260BC4200D124E14A460F2A00D816
:1056300022E107200C3A82436068014005201143B3
:105640006160A118486088600F2A00D935E14246A0
:105650004446526826490868984200D20B602549A2
:105660000868984200D38FE00B608DE0012229008A
:1056700013431143651961603000BD606B6000F039
:1056800047F9200008303EE75A0A042A72D9142A42
:1056900000D9C5E011005C325B31D20008235B42C7
:1056A0009C46BA18944463469A68032398469445E6
:1056B00000D19EE0434651689943494502D992681A
:1056C0009445F7D1D3689C467B686146A260E1604F
:1056D0008C60D460D6E6C046F0070020F80B0020AE
:1056E000780D00200F100000480D00200810000069
:1056F000700D0020740D0020142852D9542800D9B0
:1057000096E06E239846280B80446F30C1007EE6F9
:1057100008239B46073BDC449B46DA4443465246FB
:10572000134200D0C2E64CE00122E3185968300071
:105730000A435A60E368A268D3609A6000F0E8F810
:1057400020000830DFE62B00E80808332AE60123B2
:1057500060191D43656078613861C26082601A001B
:105760004B460A4342603000E15000F0D1F820007F
:105770000830C8E69A09110039323831D2008DE775
:10578000BC4260D0BC68626803239A43531B9542B5
:1057900002D80F2B00DD69E7300000F0B9F80020D7
:1057A000B1E65B23984680445C30C1002FE60823B5
:1057B0005B429C46E1444B469B6801384B4500D018
:1057C00098E043460342F2D17B688B437B604900FB
:1057D000994200D9B5E6002904D1B2E604229446E4
:1057E0004900E2440B42F9D050465AE61033009388
:1057F000C4E68910023B8B4079680B437B6064E709
:10580000009B300043445B421B051B0D19009B4667
:1058100000F0A0F8431C00D0F3E600239B46F5E619
:10582000542A2BD81A0B11006F326E31D20035E793
:10583000AA235B0098422BD8DD3B9846E80B8044B6
:105840007830C100E3E52C4B009A9A461B689C46D1
:10585000534662441A60ADE6090500D0AAE602008C
:10586000BC684A4401310A436260F3E65B46424643
:105870001A60AAE64446EDE641608DE7AA21490098
:105880008A4224D8DA0B110078327731D20005E74A
:105890001A4B984224D87C239846A80C80447D302B
:1058A000C100B4E5009A019B94464246083B63441C
:1058B0009B1A009300239B46A8E621003000083184
:1058C00000F0D6F85346BC681B686268C2E60B4914
:1058D0008A420BD89A0C11007D327C31D200DDE671
:1058E000FE217E237F209846890090E5FE227E21BE
:1058F0009200D3E67B686AE7480D0020540500005B
:1059000010B5024800F096F910BDC046440D0020C5
:1059100010B5024800F090F910BDC046440D0020BB
:10592000094B10B51C68094AA83420686168084B07
:10593000FEF7F4FF012200238018594120606160C6
:105940004800400810BDC046C40300202D7F954C80
:105950002DF45158002370B5064D040008002B604B
:10596000FCF7C8FB431C00D070BD2B68002BFBD09C
:105970002360F9E7040E002010B583070AD0030066
:10598000032102E001330B4205D01A78002AF9D135
:10599000181A10BD030019680C4A0D4C8A188A4366
:1059A00022420FD15968094A04338A188A43224295
:1059B00008D15968054A04338A188A432242F1D033
:1059C00000E001331A78002AFBD1E1E7FFFEFEFE7A
:1059D00080808080F8B50C000500FFF791FF204F14
:1059E000BB685E6803239E431E4B341B9C46644485
:1059F000240B013C113324039C4207DB00212800C7
:105A0000FFF7A8FFBB689B19984204D02800FFF756
:105A10007FFF0020F8BD28006142FFF79BFF431C79
:105A20000DD00122BB68361B16435E600E4B28006A
:105A30001A68141B1C60FFF76BFF0120EAE70021C6
:105A40002800FFF787FFBA68831A0F2BDEDD0749AE
:105A50000968401A0449086001210B435360D5E7E7
:105A6000F0070020EF0F0000480D0020F80B002089
:105A7000F0B5C64605000C0000B500294FD0FFF771
:105A80003FFF210008394C68012622000320B24361
:105A90008F187B688343624898468368BB426AD00C
:105AA00043467B6026421ED108239C460C688444F2
:105AB000091B12198C6864454FD0CB68E3609C6069
:105AC0004346FC186468344211D1BB68554C4244CB
:105AD000A34200D17EE0FC68DC60A3600123134395
